:100000000EC028C027C026C025C024C023C022C0DF
:1000100021C020C01FC01EC01DC01CC01BC0112499
:100020001FBECFE5D2E0DEBFCDBF10E0A0E6B0E05E
:10003000E8E0F2E002C005900D92AA3CB107D9F7C2
:1000400020E0AAECB0E001C01D92A03DB207E1F7AC
:1000500096D0D8C0D5CFFB01EC59FF4F90819A3094
:1000600024F081E0319680830EC0FB01E90FF11D81
:1000700097FDFA958083FB01EB59FF4F1082319772
:1000800080818F5F8083FB01EB59FF4F81E090817E
:10009000911180E00895FC01EC59FF4F2081121668
:1000A0002CF0329621E0208380E008952150FC015D
:1000B000EC59FF4F208332961082FC01E20FF11DB4
:1000C00027FDFA9580810895B99A8DB188618DB91F
:1000D000089596B1892F807194FD349A0895CF9335
:1000E000DF9300D000D000D0CDB7DEB749835A836C
:1000F0006B837C838D839E83523069F01CF4513076
:1001000031F01AC0533061F0543079F015C087B126
:10011000807F87B914C087B1807F87B9389A0FC0B4
:1001200087B1807F87B9399A0AC087B1807F87B944
:1001300087B1836087B903C087B1807F87B9898120
:10014000833009F43F9A8E81873019F486B1876035
:1001500086B98D81813019F0823019F003C03D9A43
:1001600001C03D9826960FB6F894DEBF0FBECDBFF6
:10017000DF91CF910895369A0895379A0895A4DFB4
:1001800082E38FB9EAECF0E093E0492F908381E0BD
:10019000682F8283592F9183848397E09583709190
:1001A000CD009DDFEADFE7DFC0E060E670E08C2F86
:1001B00052DFCF5FC431C9F72FEF80E792E02150C3
:1001C00080409040E1F700C00000C1E0D0E081DF56
:1001D0008111D1DFB39B0FC08091C7009091C800FF
:1001E000892B49F01092C8001092C70080E690E079
:1001F00052DF8FB9ECCFB399EACFD093C800C09348
:08020000C700E5CFF894FFCF21
:1002080000000000000000000000000000000000E6
:1002180000000000000000000000000000000000D6
:1002280000000000000000000000000000000000C6
:1002380000000000000000000000000000000000B6
:1002480000000000000000000000000000000000A6
:100258000000000000000000000000000000000096
:0A026800000000000000010100008A
:00000001FF
